{
  "_format": "hh-sol-artifact-1",
  "contractName": "MyERC1155Token",
  "sourceName": "contracts/MyERC1155Token.sol",
  "abi": [
    {
      "inputs": [
        {
          "internalType": "address",
          "name": "initialOwner",
          "type": "address"
        },
        {
          "internalType": "uint256",
          "name": "_PRICE",
          "type": "uint256"
        }
      ],
      "stateMutability": "nonpayable",
      "type": "constructor"
    },
    {
      "inputs": [
        {
          "internalType": "address",
          "name": "sender",
          "type": "address"
        },
        {
          "internalType": "uint256",
          "name": "balance",
          "type": "uint256"
        },
        {
          "internalType": "uint256",
          "name": "needed",
          "type": "uint256"
        },
        {
          "internalType": "uint256",
          "name": "tokenId",
          "type": "uint256"
        }
      ],
      "name": "ERC1155InsufficientBalance",
      "type": "error"
    },
    {
      "inputs": [
        {
          "internalType": "address",
          "name": "approver",
          "type": "address"
        }
      ],
      "name": "ERC1155InvalidApprover",
      "type": "error"
    },
    {
      "inputs": [
        {
          "internalType": "uint256",
          "name": "idsLength",
          "type": "uint256"
        },
        {
          "internalType": "uint256",
          "name": "valuesLength",
          "type": "uint256"
        }
      ],
      "name": "ERC1155InvalidArrayLength",
      "type": "error"
    },
    {
      "inputs": [
        {
          "internalType": "address",
          "name": "operator",
          "type": "address"
        }
      ],
      "name": "ERC1155InvalidOperator",
      "type": "error"
    },
    {
      "inputs": [
        {
          "internalType": "address",
          "name": "receiver",
          "type": "address"
        }
      ],
      "name": "ERC1155InvalidReceiver",
      "type": "error"
    },
    {
      "inputs": [
        {
          "internalType": "address",
          "name": "sender",
          "type": "address"
        }
      ],
      "name": "ERC1155InvalidSender",
      "type": "error"
    },
    {
      "inputs": [
        {
          "internalType": "address",
          "name": "operator",
          "type": "address"
        },
        {
          "internalType": "address",
          "name": "owner",
          "type": "address"
        }
      ],
      "name": "ERC1155MissingApprovalForAll",
      "type": "error"
    },
    {
      "inputs": [
        {
          "internalType": "address",
          "name": "owner",
          "type": "address"
        }
      ],
      "name": "OwnableInvalidOwner",
      "type": "error"
    },
    {
      "inputs": [
        {
          "internalType": "address",
          "name": "account",
          "type": "address"
        }
      ],
      "name": "OwnableUnauthorizedAccount",
      "type": "error"
    },
    {
      "anonymous": false,
      "inputs": [
        {
          "indexed": true,
          "internalType": "address",
          "name": "account",
          "type": "address"
        },
        {
          "indexed": true,
          "internalType": "address",
          "name": "operator",
          "type": "address"
        },
        {
          "indexed": false,
          "internalType": "bool",
          "name": "approved",
          "type": "bool"
        }
      ],
      "name": "ApprovalForAll",
      "type": "event"
    },
    {
      "anonymous": false,
      "inputs": [
        {
          "indexed": true,
          "internalType": "address",
          "name": "previousOwner",
          "type": "address"
        },
        {
          "indexed": true,
          "internalType": "address",
          "name": "newOwner",
          "type": "address"
        }
      ],
      "name": "OwnershipTransferred",
      "type": "event"
    },
    {
      "anonymous": false,
      "inputs": [
        {
          "indexed": true,
          "internalType": "address",
          "name": "operator",
          "type": "address"
        },
        {
          "indexed": true,
          "internalType": "address",
          "name": "from",
          "type": "address"
        },
        {
          "indexed": true,
          "internalType": "address",
          "name": "to",
          "type": "address"
        },
        {
          "indexed": false,
          "internalType": "uint256[]",
          "name": "ids",
          "type": "uint256[]"
        },
        {
          "indexed": false,
          "internalType": "uint256[]",
          "name": "values",
          "type": "uint256[]"
        }
      ],
      "name": "TransferBatch",
      "type": "event"
    },
    {
      "anonymous": false,
      "inputs": [
        {
          "indexed": true,
          "internalType": "address",
          "name": "operator",
          "type": "address"
        },
        {
          "indexed": true,
          "internalType": "address",
          "name": "from",
          "type": "address"
        },
        {
          "indexed": true,
          "internalType": "address",
          "name": "to",
          "type": "address"
        },
        {
          "indexed": false,
          "internalType": "uint256",
          "name": "id",
          "type": "uint256"
        },
        {
          "indexed": false,
          "internalType": "uint256",
          "name": "value",
          "type": "uint256"
        }
      ],
      "name": "TransferSingle",
      "type": "event"
    },
    {
      "anonymous": false,
      "inputs": [
        {
          "indexed": false,
          "internalType": "string",
          "name": "value",
          "type": "string"
        },
        {
          "indexed": true,
          "internalType": "uint256",
          "name": "id",
          "type": "uint256"
        }
      ],
      "name": "URI",
      "type": "event"
    },
    {
      "inputs": [],
      "name": "MAX_ELEMENTS",
      "outputs": [
        {
          "internalType": "uint256",
          "name": "",
          "type": "uint256"
        }
      ],
      "stateMutability": "view",
      "type": "function"
    },
    {
      "inputs": [],
      "name": "NFT_ID",
      "outputs": [
        {
          "internalType": "uint256",
          "name": "",
          "type": "uint256"
        }
      ],
      "stateMutability": "view",
      "type": "function"
    },
    {
      "inputs": [],
      "name": "TOKEN_ID",
      "outputs": [
        {
          "internalType": "uint256",
          "name": "",
          "type": "uint256"
        }
      ],
      "stateMutability": "view",
      "type": "function"
    },
    {
      "inputs": [
        {
          "internalType": "address",
          "name": "account",
          "type": "address"
        },
        {
          "internalType": "uint256",
          "name": "id",
          "type": "uint256"
        }
      ],
      "name": "balanceOf",
      "outputs": [
        {
          "internalType": "uint256",
          "name": "",
          "type": "uint256"
        }
      ],
      "stateMutability": "view",
      "type": "function"
    },
    {
      "inputs": [
        {
          "internalType": "address[]",
          "name": "accounts",
          "type": "address[]"
        },
        {
          "internalType": "uint256[]",
          "name": "ids",
          "type": "uint256[]"
        }
      ],
      "name": "balanceOfBatch",
      "outputs": [
        {
          "internalType": "uint256[]",
          "name": "",
          "type": "uint256[]"
        }
      ],
      "stateMutability": "view",
      "type": "function"
    },
    {
      "inputs": [
        {
          "internalType": "address",
          "name": "_to",
          "type": "address"
        },
        {
          "internalType": "uint256",
          "name": "amount",
          "type": "uint256"
        }
      ],
      "name": "buy",
      "outputs": [],
      "stateMutability": "payable",
      "type": "function"
    },
    {
      "inputs": [
        {
          "internalType": "address",
          "name": "_to",
          "type": "address"
        },
        {
          "internalType": "uint256",
          "name": "_count",
          "type": "uint256"
        }
      ],
      "name": "buyNFT",
      "outputs": [],
      "stateMutability": "payable",
      "type": "function"
    },
    {
      "inputs": [
        {
          "internalType": "address",
          "name": "account",
          "type": "address"
        },
        {
          "internalType": "address",
          "name": "operator",
          "type": "address"
        }
      ],
      "name": "isApprovedForAll",
      "outputs": [
        {
          "internalType": "bool",
          "name": "",
          "type": "bool"
        }
      ],
      "stateMutability": "view",
      "type": "function"
    },
    {
      "inputs": [
        {
          "internalType": "address",
          "name": "to",
          "type": "address"
        },
        {
          "internalType": "uint256[]",
          "name": "ids",
          "type": "uint256[]"
        },
        {
          "internalType": "uint256[]",
          "name": "amounts",
          "type": "uint256[]"
        },
        {
          "internalType": "bytes",
          "name": "data",
          "type": "bytes"
        }
      ],
      "name": "mintBatch",
      "outputs": [],
      "stateMutability": "nonpayable",
      "type": "function"
    },
    {
      "inputs": [
        {
          "internalType": "address",
          "name": "",
          "type": "address"
        },
        {
          "internalType": "address",
          "name": "",
          "type": "address"
        },
        {
          "internalType": "uint256[]",
          "name": "",
          "type": "uint256[]"
        },
        {
          "internalType": "uint256[]",
          "name": "",
          "type": "uint256[]"
        },
        {
          "internalType": "bytes",
          "name": "",
          "type": "bytes"
        }
      ],
      "name": "onERC1155BatchReceived",
      "outputs": [
        {
          "internalType": "bytes4",
          "name": "",
          "type": "bytes4"
        }
      ],
      "stateMutability": "nonpayable",
      "type": "function"
    },
    {
      "inputs": [
        {
          "internalType": "address",
          "name": "",
          "type": "address"
        },
        {
          "internalType": "address",
          "name": "",
          "type": "address"
        },
        {
          "internalType": "uint256",
          "name": "",
          "type": "uint256"
        },
        {
          "internalType": "uint256",
          "name": "",
          "type": "uint256"
        },
        {
          "internalType": "bytes",
          "name": "",
          "type": "bytes"
        }
      ],
      "name": "onERC1155Received",
      "outputs": [
        {
          "internalType": "bytes4",
          "name": "",
          "type": "bytes4"
        }
      ],
      "stateMutability": "nonpayable",
      "type": "function"
    },
    {
      "inputs": [],
      "name": "owner",
      "outputs": [
        {
          "internalType": "address",
          "name": "",
          "type": "address"
        }
      ],
      "stateMutability": "view",
      "type": "function"
    },
    {
      "inputs": [],
      "name": "renounceOwnership",
      "outputs": [],
      "stateMutability": "nonpayable",
      "type": "function"
    },
    {
      "inputs": [
        {
          "internalType": "address",
          "name": "from",
          "type": "address"
        },
        {
          "internalType": "address",
          "name": "to",
          "type": "address"
        },
        {
          "internalType": "uint256[]",
          "name": "ids",
          "type": "uint256[]"
        },
        {
          "internalType": "uint256[]",
          "name": "amounts",
          "type": "uint256[]"
        },
        {
          "internalType": "bytes",
          "name": "data",
          "type": "bytes"
        }
      ],
      "name": "safeBatchTransferFrom",
      "outputs": [],
      "stateMutability": "nonpayable",
      "type": "function"
    },
    {
      "inputs": [
        {
          "internalType": "address",
          "name": "from",
          "type": "address"
        },
        {
          "internalType": "address",
          "name": "to",
          "type": "address"
        },
        {
          "internalType": "uint256",
          "name": "tokenId",
          "type": "uint256"
        },
        {
          "internalType": "uint256",
          "name": "amount",
          "type": "uint256"
        },
        {
          "internalType": "bytes",
          "name": "data",
          "type": "bytes"
        }
      ],
      "name": "safeTransferFrom",
      "outputs": [],
      "stateMutability": "nonpayable",
      "type": "function"
    },
    {
      "inputs": [
        {
          "internalType": "address",
          "name": "operator",
          "type": "address"
        },
        {
          "internalType": "bool",
          "name": "approved",
          "type": "bool"
        }
      ],
      "name": "setApprovalForAll",
      "outputs": [],
      "stateMutability": "nonpayable",
      "type": "function"
    },
    {
      "inputs": [
        {
          "internalType": "bytes4",
          "name": "interfaceId",
          "type": "bytes4"
        }
      ],
      "name": "supportsInterface",
      "outputs": [
        {
          "internalType": "bool",
          "name": "",
          "type": "bool"
        }
      ],
      "stateMutability": "view",
      "type": "function"
    },
    {
      "inputs": [
        {
          "internalType": "address",
          "name": "newOwner",
          "type": "address"
        }
      ],
      "name": "transferOwnership",
      "outputs": [],
      "stateMutability": "nonpayable",
      "type": "function"
    },
    {
      "inputs": [
        {
          "internalType": "uint256",
          "name": "_id",
          "type": "uint256"
        }
      ],
      "name": "uri",
      "outputs": [
        {
          "internalType": "string",
          "name": "",
          "type": "string"
        }
      ],
      "stateMutability": "view",
      "type": "function"
    }
  ],
  "bytecode": "0x60a06040526000608090815260039061001890826106d0565b506001600655600160075534801561002f57600080fd5b5060405161234638038061234683398101604081905261004e9161078e565b8160405180608001604052806044815260200161230260449139610071816100e9565b506001600160a01b0381166100a157604051631e4fbdf760e01b8152600060048201526024015b60405180910390fd5b6100aa816100f9565b506100e0306000670de0b6b3a764000060405180604001604052806002815260200161060f60f31b81525061014b60201b60201c565b60075550610973565b60026100f582826106d0565b5050565b600580546001600160a01b038381166001600160a01b0319831681179093556040519116919082907f8be0079c531659141344cd1fd0a4f28419497f9722a3daafe3b4186f6b6457e090600090a35050565b6001600160a01b03841661017557604051632bfa23e760e11b815260006004820152602401610098565b604080516001808252602082018690528183019081526060820185905260808201909252906101a86000878484876101b0565b505050505050565b6101bc8585858561020a565b6001600160a01b0384161561020357825133906001036101f557602084810151908401516101ee83898985858961041e565b50506101a8565b6101a881878787878761054b565b5050505050565b80518251146102395781518151604051635b05999160e01b815260048101929092526024820152604401610098565b3360005b835181101561033f576020818102858101820151908501909101516001600160a01b038816156102f0576000828152602081815260408083206001600160a01b038c168452909152902054818110156102c9576040516303dee4c560e01b81526001600160a01b038a166004820152602481018290526044810183905260648101849052608401610098565b6000838152602081815260408083206001600160a01b038d16845290915290209082900390555b6001600160a01b03871615610335576000828152602081815260408083206001600160a01b038b1684529091528120805483929061032f9084906107c8565b90915550505b505060010161023d565b5082516001036103c05760208301516000906020840151909150856001600160a01b0316876001600160a01b0316846001600160a01b03167fc3d58168c5ae7397731d063d5bbf3d657854427343f4c083240f7aacaa2d0f6285856040516103b1929190918252602082015260400190565b60405180910390a45050610203565b836001600160a01b0316856001600160a01b0316826001600160a01b03167f4a39dc06d4c0dbc64b70af90fd698a233a518aa5d07e595d983b8c0526c8f7fb868660405161040f92919061082b565b60405180910390a45050505050565b6001600160a01b0384163b156101a85760405163f23a6e6160e01b81526001600160a01b0385169063f23a6e6190610462908990899088908890889060040161089f565b6020604051808303816000875af192505050801561049d575060408051601f3d908101601f1916820190925261049a918101906108e4565b60015b610506573d8080156104cb576040519150601f19603f3d011682016040523d82523d6000602084013e6104d0565b606091505b5080516000036104fe57604051632bfa23e760e11b81526001600160a01b0386166004820152602401610098565b805181602001fd5b6001600160e01b0319811663f23a6e6160e01b1461054257604051632bfa23e760e11b81526001600160a01b0386166004820152602401610098565b50505050505050565b6001600160a01b0384163b156101a85760405163bc197c8160e01b81526001600160a01b0385169063bc197c819061058f9089908990889088908890600401610915565b6020604051808303816000875af19250505080156105ca575060408051601f3d908101601f191682019092526105c7918101906108e4565b60015b6105f8573d8080156104cb576040519150601f19603f3d011682016040523d82523d6000602084013e6104d0565b6001600160e01b0319811663bc197c8160e01b1461054257604051632bfa23e760e11b81526001600160a01b0386166004820152602401610098565b634e487b7160e01b600052604160045260246000fd5b600181811c9082168061065e57607f821691505b60208210810361067e57634e487b7160e01b600052602260045260246000fd5b50919050565b601f8211156106cb57806000526020600020601f840160051c810160208510156106ab5750805b601f840160051c820191505b8181101561020357600081556001016106b7565b505050565b81516001600160401b038111156106e9576106e9610634565b6106fd816106f7845461064a565b84610684565b6020601f82116001811461073157600083156107195750848201515b600019600385901b1c1916600184901b178455610203565b600084815260208120601f198516915b828110156107615787850151825560209485019460019092019101610741565b508482101561077f5786840151600019600387901b60f8161c191681555b50505050600190811b01905550565b600080604083850312156107a157600080fd5b82516001600160a01b03811681146107b857600080fd5b6020939093015192949293505050565b808201808211156107e957634e487b7160e01b600052601160045260246000fd5b92915050565b600081518084526020840193506020830160005b82811015610821578151865260209586019590910190600101610803565b5093949350505050565b60408152600061083e60408301856107ef565b828103602084015261085081856107ef565b95945050505050565b6000815180845260005b8181101561087f57602081850181015186830182015201610863565b506000602082860101526020601f19601f83011685010191505092915050565b6001600160a01b03868116825285166020820152604081018490526060810183905260a0608082018190526000906108d990830184610859565b979650505050505050565b6000602082840312156108f657600080fd5b81516001600160e01b03198116811461090e57600080fd5b9392505050565b6001600160a01b0386811682528516602082015260a060408201819052600090610941908301866107ef565b828103606084015261095381866107ef565b905082810360808401526109678185610859565b98975050505050505050565b611980806109826000396000f3fe6080604052600436106101135760003560e01c806389a89002116100a0578063cce7ec1311610064578063cce7ec131461030b578063e985e9c51461031e578063f23a6e611461033e578063f242432a1461036a578063f2fde38b1461038a57600080fd5b806389a89002146102565780638da5cb5b1461026b578063a22cb46514610293578063a82ba76f146102b3578063bc197c81146102c657600080fd5b80632eb2c2d6116100e75780632eb2c2d6146101ca5780633502a716146101ea5780634e1273f4146101ff578063707ddfae1461022c578063715018a61461024157600080fd5b8062fdd58e1461011857806301ffc9a71461014b5780630e89341c1461017b5780631f7fdffa146101a8575b600080fd5b34801561012457600080fd5b5061013861013336600461118b565b6103aa565b6040519081526020015b60405180910390f35b34801561015757600080fd5b5061016b6101663660046111cb565b6103d2565b6040519015158152602001610142565b34801561018757600080fd5b5061019b6101963660046111e8565b6103dd565b6040516101429190611251565b3480156101b457600080fd5b506101c86101c33660046113a9565b6103e8565b005b3480156101d657600080fd5b506101c86101e536600461144b565b610402565b3480156101f657600080fd5b50610138600781565b34801561020b57600080fd5b5061021f61021a3660046114fe565b610416565b6040516101429190611601565b34801561023857600080fd5b50610138600181565b34801561024d57600080fd5b506101c86104e7565b34801561026257600080fd5b50610138600081565b34801561027757600080fd5b506005546040516001600160a01b039091168152602001610142565b34801561029f57600080fd5b506101c86102ae366004611614565b6104fb565b6101c86102c136600461118b565b61050a565b3480156102d257600080fd5b506102f26102e136600461144b565b63bc197c8160e01b95945050505050565b6040516001600160e01b03199091168152602001610142565b6101c861031936600461118b565b6105e4565b34801561032a57600080fd5b5061016b610339366004611650565b610744565b34801561034a57600080fd5b506102f2610359366004611683565b63f23a6e6160e01b95945050505050565b34801561037657600080fd5b506101c8610385366004611683565b610772565b34801561039657600080fd5b506101c86103a53660046116db565b61077f565b6000818152602081815260408083206001600160a01b03861684529091529020545b92915050565b60006103cc826107bd565b60606103cc826107e2565b6103f06108c2565b6103fc848484846108ef565b50505050565b61040f8585858585610927565b5050505050565b6060815183511461044c5781518351604051635b05999160e01b8152600481019290925260248201526044015b60405180910390fd5b600083516001600160401b0381111561046757610467611264565b604051908082528060200260200182016040528015610490578160200160208202803683370190505b50905060005b84518110156104df576020808202860101516104ba906020808402870101516103aa565b8282815181106104cc576104cc6116f6565b6020908102919091010152600101610496565b509392505050565b6104ef6108c2565b6104f9600061098e565b565b6105063383836109e0565b5050565b60078160065461051a9190611722565b1061055c5760405162461bcd60e51b815260206004820152601260248201527113585e081b1a5b5a5d08195e18d95959195960721b6044820152606401610443565b8060075461056a9190611735565b3410156105ad5760405162461bcd60e51b815260206004820152601160248201527056616c75652062656c6f7720707269636560781b6044820152606401610443565b6006805490819060006105bf8361174c565b91905055506105df83828460405180602001604052806000815250610a76565b505050565b6000816007546105f49190611735565b9050803410156106525760405162461bcd60e51b8152602060048201526024808201527f496e73756666696369656e742066756e647320746f206275792074686520746f6044820152636b656e7360e01b6064820152608401610443565b8161065e3060006103aa565b10156106b85760405162461bcd60e51b8152602060048201526024808201527f4e6f7420656e6f75676820746f6b656e7320617661696c61626c6520666f722060448201526373616c6560e01b6064820152608401610443565b604051637921219560e11b815230600482018190526001600160a01b0385166024830152600060448301526064820184905260a06084830152600260a483015261060f60f31b60c48301529063f242432a9060e401600060405180830381600087803b15801561072757600080fd5b505af115801561073b573d6000803e3d6000fd5b50505050505050565b6001600160a01b03918216600090815260016020908152604080832093909416825291909152205460ff1690565b61040f8585858585610ad3565b6107876108c2565b6001600160a01b0381166107b157604051631e4fbdf760e01b815260006004820152602401610443565b6107ba8161098e565b50565b60006001600160e01b03198216630271189760e51b14806103cc57506103cc82610b32565b60008181526004602052604081208054606092919061080090611765565b80601f016020809104026020016040519081016040528092919081815260200182805461082c90611765565b80156108795780601f1061084e57610100808354040283529160200191610879565b820191906000526020600020905b81548152906001019060200180831161085c57829003601f168201915b5050505050905060008151116108975761089283610b82565b6108bb565b6003816040516020016108ab9291906117bb565b6040516020818303038152906040525b9392505050565b6005546001600160a01b031633146104f95760405163118cdaa760e01b8152336004820152602401610443565b6001600160a01b03841661091957604051632bfa23e760e11b815260006004820152602401610443565b6103fc600085858585610c16565b336001600160a01b038616811480159061094857506109468682610744565b155b156109795760405163711bec9160e11b81526001600160a01b03808316600483015287166024820152604401610443565b6109868686868686610c69565b505050505050565b600580546001600160a01b038381166001600160a01b0319831681179093556040519116919082907f8be0079c531659141344cd1fd0a4f28419497f9722a3daafe3b4186f6b6457e090600090a35050565b6001600160a01b038216610a095760405162ced3e160e81b815260006004820152602401610443565b6001600160a01b03838116600081815260016020908152604080832094871680845294825291829020805460ff191686151590811790915591519182527f17307eab39ab6107e8899845ad3d59bd9653f200f220920489ca2b5937696c31910160405180910390a3505050565b6001600160a01b038416610aa057604051632bfa23e760e11b815260006004820152602401610443565b60408051600180825260208201869052818301908152606082018590526080820190925290610986600087848487610c16565b336001600160a01b0386168114801590610af45750610af28682610744565b155b15610b255760405163711bec9160e11b81526001600160a01b03808316600483015287166024820152604401610443565b6109868686868686610cc9565b60006001600160e01b03198216636cdb3d1360e11b1480610b6357506001600160e01b031982166303a24d0760e21b145b806103cc57506301ffc9a760e01b6001600160e01b03198316146103cc565b606060028054610b9190611765565b80601f0160208091040260200160405190810160405280929190818152602001828054610bbd90611765565b8015610c0a5780601f10610bdf57610100808354040283529160200191610c0a565b820191906000526020600020905b815481529060010190602001808311610bed57829003601f168201915b50505050509050919050565b610c2285858585610d4e565b6001600160a01b0384161561040f5782513390600103610c5b5760208481015190840151610c54838989858589610f62565b5050610986565b610986818787878787611086565b6001600160a01b038416610c9357604051632bfa23e760e11b815260006004820152602401610443565b6001600160a01b038516610cbc57604051626a0d4560e21b815260006004820152602401610443565b61040f8585858585610c16565b6001600160a01b038416610cf357604051632bfa23e760e11b815260006004820152602401610443565b6001600160a01b038516610d1c57604051626a0d4560e21b815260006004820152602401610443565b6040805160018082526020820186905281830190815260608201859052608082019092529061073b8787848487610c16565b8051825114610d7d5781518151604051635b05999160e01b815260048101929092526024820152604401610443565b3360005b8351811015610e83576020818102858101820151908501909101516001600160a01b03881615610e34576000828152602081815260408083206001600160a01b038c16845290915290205481811015610e0d576040516303dee4c560e01b81526001600160a01b038a166004820152602481018290526044810183905260648101849052608401610443565b6000838152602081815260408083206001600160a01b038d16845290915290209082900390555b6001600160a01b03871615610e79576000828152602081815260408083206001600160a01b038b16845290915281208054839290610e73908490611722565b90915550505b5050600101610d81565b508251600103610f045760208301516000906020840151909150856001600160a01b0316876001600160a01b0316846001600160a01b03167fc3d58168c5ae7397731d063d5bbf3d657854427343f4c083240f7aacaa2d0f628585604051610ef5929190918252602082015260400190565b60405180910390a4505061040f565b836001600160a01b0316856001600160a01b0316826001600160a01b03167f4a39dc06d4c0dbc64b70af90fd698a233a518aa5d07e595d983b8c0526c8f7fb8686604051610f53929190611865565b60405180910390a45050505050565b6001600160a01b0384163b156109865760405163f23a6e6160e01b81526001600160a01b0385169063f23a6e6190610fa6908990899088908890889060040161188a565b6020604051808303816000875af1925050508015610fe1575060408051601f3d908101601f19168201909252610fde918101906118cf565b60015b61104a573d80801561100f576040519150601f19603f3d011682016040523d82523d6000602084013e611014565b606091505b50805160000361104257604051632bfa23e760e11b81526001600160a01b0386166004820152602401610443565b805181602001fd5b6001600160e01b0319811663f23a6e6160e01b1461073b57604051632bfa23e760e11b81526001600160a01b0386166004820152602401610443565b6001600160a01b0384163b156109865760405163bc197c8160e01b81526001600160a01b0385169063bc197c81906110ca90899089908890889088906004016118ec565b6020604051808303816000875af1925050508015611105575060408051601f3d908101601f19168201909252611102918101906118cf565b60015b611133573d80801561100f576040519150601f19603f3d011682016040523d82523d6000602084013e611014565b6001600160e01b0319811663bc197c8160e01b1461073b57604051632bfa23e760e11b81526001600160a01b0386166004820152602401610443565b80356001600160a01b038116811461118657600080fd5b919050565b6000806040838503121561119e57600080fd5b6111a78361116f565b946020939093013593505050565b6001600160e01b0319811681146107ba57600080fd5b6000602082840312156111dd57600080fd5b81356108bb816111b5565b6000602082840312156111fa57600080fd5b5035919050565b60005b8381101561121c578181015183820152602001611204565b50506000910152565b6000815180845261123d816020860160208601611201565b601f01601f19169290920160200192915050565b6020815260006108bb6020830184611225565b634e487b7160e01b600052604160045260246000fd5b604051601f8201601f191681016001600160401b03811182821017156112a2576112a2611264565b604052919050565b60006001600160401b038211156112c3576112c3611264565b5060051b60200190565b600082601f8301126112de57600080fd5b81356112f16112ec826112aa565b61127a565b8082825260208201915060208360051b86010192508583111561131357600080fd5b602085015b83811015611330578035835260209283019201611318565b5095945050505050565b600082601f83011261134b57600080fd5b81356001600160401b0381111561136457611364611264565b611377601f8201601f191660200161127a565b81815284602083860101111561138c57600080fd5b816020850160208301376000918101602001919091529392505050565b600080600080608085870312156113bf57600080fd5b6113c88561116f565b935060208501356001600160401b038111156113e357600080fd5b6113ef878288016112cd565b93505060408501356001600160401b0381111561140b57600080fd5b611417878288016112cd565b92505060608501356001600160401b0381111561143357600080fd5b61143f8782880161133a565b91505092959194509250565b600080600080600060a0868803121561146357600080fd5b61146c8661116f565b945061147a6020870161116f565b935060408601356001600160401b0381111561149557600080fd5b6114a1888289016112cd565b93505060608601356001600160401b038111156114bd57600080fd5b6114c9888289016112cd565b92505060808601356001600160401b038111156114e557600080fd5b6114f18882890161133a565b9150509295509295909350565b6000806040838503121561151157600080fd5b82356001600160401b0381111561152757600080fd5b8301601f8101851361153857600080fd5b80356115466112ec826112aa565b8082825260208201915060208360051b85010192508783111561156857600080fd5b6020840193505b82841015611591576115808461116f565b82526020938401939091019061156f565b945050505060208301356001600160401b038111156115af57600080fd5b6115bb858286016112cd565b9150509250929050565b600081518084526020840193506020830160005b828110156115f75781518652602095860195909101906001016115d9565b5093949350505050565b6020815260006108bb60208301846115c5565b6000806040838503121561162757600080fd5b6116308361116f565b91506020830135801515811461164557600080fd5b809150509250929050565b6000806040838503121561166357600080fd5b61166c8361116f565b915061167a6020840161116f565b90509250929050565b600080600080600060a0868803121561169b57600080fd5b6116a48661116f565b94506116b26020870161116f565b9350604086013592506060860135915060808601356001600160401b038111156114e557600080fd5b6000602082840312156116ed57600080fd5b6108bb8261116f565b634e487b7160e01b600052603260045260246000fd5b634e487b7160e01b600052601160045260246000fd5b808201808211156103cc576103cc61170c565b80820281158282048414176103cc576103cc61170c565b60006001820161175e5761175e61170c565b5060010190565b600181811c9082168061177957607f821691505b60208210810361179957634e487b7160e01b600052602260045260246000fd5b50919050565b600081516117b1818560208601611201565b9290920192915050565b6000808454818160011c905060018216806117d757607f821691505b6020821081036117f557634e487b7160e01b84526022600452602484fd5b808015611809576001811461181e5761184e565b60ff198416875282151583028701945061184e565b60008981526020902060005b848110156118465781548982015260019091019060200161182a565b505082870194505b5050505061185c818561179f565b95945050505050565b60408152600061187860408301856115c5565b828103602084015261185c81856115c5565b6001600160a01b03868116825285166020820152604081018490526060810183905260a0608082018190526000906118c490830184611225565b979650505050505050565b6000602082840312156118e157600080fd5b81516108bb816111b5565b6001600160a01b0386811682528516602082015260a060408201819052600090611918908301866115c5565b828103606084015261192a81866115c5565b9050828103608084015261193e8185611225565b9897505050505050505056fea26469706673582212202ac1d6ec9b353748b5f1aa72beda721a1173ee706ae271007ef9f354f7931ce864736f6c634300081a003368747470733a2f2f697066732e696f2f697066732f516d643747473465634856794563334c62325461363876596351386d6f5555704c684857427764753266543435442f",
  "linkReferences": {},
  "deployedLinkReferences": {}
}